:020000040800F2
:100000000050002019020008650400086704000879
:10001000690400086B0400086D040008000000007B
:100020000000000000000000000000006F04000855
:10003000710400080000000073040008750900083E
:100040004503000845030008450300084503000870
:100050004503000845030008450300084503000860
:100060004503000845030008450300084503000850
:100070004503000845030008450300084503000840
:100080004503000845030008450300084503000830
:1000900045030008750400084503000845030008EF
:1000A0004503000845030008450300084503000810
:1000B0004503000845030008450300084503000800
:1000C00045030008450300084503000845030008F0
:1000D00045030008450300084503000845030008E0
:1000E0004503000845030008450300080000000020
:1000F0000000000000000000000000000000000000
:100100004503000800B583B000F09CFA304B314A3B
:100110001360314A1360314B314A03E052F8041B3B
:1001200043F8041B2F498B42F8D32A4B1A682E4BF5
:100130009A4200D0FEE7284B1A682C4B9A42F9D11C
:10014000234B2B4A13602B4A13602B4B02E00022F7
:1001500043F8042B294A9342F9D3254B1B6813B962
:10016000244B1B6803B1FEE700F078FA694601A84A
:1001700000F022F9224C234BE41AA410002504E0DD
:10018000204B53F8253098470135AC42F8DC1E4C23
:100190001E4BE41AA410002504E01C4B53F8253034
:1001A00098470135AC42F8DC0099019800F016FB45
:1001B0000546174C174BE41AA41004E0013C154BFC
:1001C00053F824309847002CF8DC284600F0D0F88B
:1001D000BABADECA00000020600000200000002043
:1001E0007414000864000020785634123254769853
:1001F00064000020040100206400002008010020A9
:100200007003000870030008700300087003000802
:10021000700300087003000808B5FFF773FF00BE05
:10022000FEE71EF0040F0CBFEFF30880EFF3098028
:100230007146414A10472DE9F04182B004460D460F
:10024000124B5F6BD3F838809E6A1B6B13F0020F62
:1002500003D00E4BDB6A002B0BDB0D4800F04EF990
:10026000009543463A463146204600F061F900BE0B
:10027000FEE74BF6AB6100F0D5F90028EDD0034B5B
:100280004FF00042DA6202B0BDE8F08100ED00E01C
:10029000EC13000800BEFEE71EF0040F0CBFEFF3E6
:1002A0000880EFF309807146244A10472DE9F04198
:1002B00082B004460D46084B5F6BD3F838809E6AC7
:1002C000064800F01BF9009543463A463146204661
:1002D00000F02EF900BEFEE700ED00E0FC13000880
:1002E0001EF0040F0CBFEFF30880EFF30980714696
:1002F000134A10472DE9F04182B004460D46084BE1
:100300005F6BD3F838809E6A064800F0F7F80095D6
:1003100043463A463146204600F00AF900BEFEE761
:1003200000ED00E00814000800BEFEE700BEFEE796
:1003300000BEFEE77047000037020008AD0200086B
:06034000F5020008FEE7D3
:1003480074140008000000206400002074140008E1
:1003580000000010000000106400002008010020C8
:0803680000000010000000106D
:10037000FEE7000008B503460C4A12685AB10B4A62
:100380001068033323F003030344094A934206D859
:10039000064A136008BD054A06491160EFE700F000
:1003A00027FB0C2303604FF0FF30F3E768000020C9
:1003B000004C00200801002001230360014B0B606A
:1003C000704700BF0400002070B501F00F0E11F05F
:1003D000100F01D04EEA020E002203E044610560D6
:1003E000013292B2072A14D8012494401C40F7D05D
:1003F000066895004FF00F0C0CFA05FC26EA0C0677
:100400000EFA05F535432829E8D04829E7D10461DB
:10041000E5E7082203E044614560013292B20F2A09
:100420001AD84FF0010C0CFA02FC1CEA0304F4D0B9
:100430004568A2F1080C4FEA8C0C0F2606FA0CF660
:1004400025EA06050EFA0CFC4CEA05052829E2D03F
:100450004829E1D10461DFE770BD0AB1016170474D
:10046000416170477047FEE7FEE7FEE7FEE7704731
:10047000704770477047830903F1804303F50433E5
:100480001A6800F01F00012181400A431A6070477A
:100490002DE9F04385B004460F4643563BBB042587
:1004A00028462146ABBE0546384605B0BDE8F08378
:1004B00014F901CB03F110026A4402F810CC0133A5
:1004C000AB42F5D310336B44002203F8102C4FF0ED
:1004D0000408E94640464946ABBE8046761B002EDE
:1004E000E2D03546102E28BF10250023E8E70E463F
:1004F000F5E708B5FFF7CCFF08BD00000FB400B565
:1005000083B004AB53F8042B01938021074800F01B
:1005100061FA002804DC03B05DF804EB04B0704716
:1005200001460248FFF7E5FFF5E700BF7400002031
:10053000F8B504460D4617461E462748FFF7DEFF6E
:1005400021682648FFF7DAFF61682548FFF7D6FFE4
:10055000A1682448FFF7D2FFE1682348FFF7CEFFE8
:1005600021692248FFF7CAFF61692148FFF7C6FFEA
:10057000A1692048FFF7C2FFE1691F48FFF7BEFFEE
:100580001E48FFF7BBFF29461D48FFF7B7FF1D4C6C
:10059000E16A1D48FFF7B2FF216B1C48FFF7AEFF71
:1005A000E16B1B48FFF7AAFF15F0800F0AD115F485
:1005B000004F0CD11748FFF7A1FF06991648FFF727
:1005C0009DFFF8BD39461548FFF798FFEFE7314624
:1005D0001348FFF793FFEDE7D0120008E012000880
:1005E000F012000800130008101300082013000880
:1005F000301300084013000850130008601300086F
:100600006C13000800ED00E07C1300088C13000858
:100610009C130008CC130008D4130008AC13000886
:10062000BC13000883691A888A4201D000207047F1
:100630000268033A012A01D900207047023383611E
:100640000120704708B500F05FF8024A024B9A603B
:1006500008BD00BF0000000800ED00E008B500F094
:100660007DF808BD254A136843F4803313600023E6
:100670000133224A126812F4003F03D14FF6FF7291
:100680009342F5D11D4B1B6813F4003F00D1FEE7E8
:100690001A4B5A685A605A685A605A6842F4806223
:1006A0005A605A6822F440325A605A6842F4403222
:1006B0005A605A6822F0036222F440225A605A6853
:1006C00042F0026242F400225A601A6842F08072DC
:1006D0001A600A4B1B6813F0007FFAD0074B5A6868
:1006E00022F003025A605A6842F002025A60034B39
:1006F0005B6813F0080FFAD0704700BF001002408B
:1007000008B5FFF7AFFF08BD08B5124B1A6842F0F5
:1007100001021A605968104A0A405A601A6822F0A9
:10072000847222F480321A601A6822F480221A60DD
:100730005A6822F00F6222F470225A601A6822F07E
:10074000847222F480321A604FF41F029A60FFF71D
:10075000D7FF08BD001002400C00FFE81B4B5B6890
:10076000C3F38103012B0AD0022B0CD01BB1184B11
:10077000184A1A607047164B164A1A607047144B95
:10078000144A1A607047114B5B6813F4803F06D01F
:100790000E4B5B6813F4003F12D10E4900E00E4986
:1007A0000A4A5368C3F38343526812F0006F09D0BA
:1007B00043F01003013301FB03F3054A1360704754
:1007C0000549EDE70E2BF5D80233F4E7001002409F
:1007D0000C00002000127A0000093D0008B540F22C
:1007E0000260FFF748FE00F095F84FF47A7000F0D1
:1007F000ADF884220249152000F063F8F5E700BF48
:100800000004080008B50346012906D00322482148
:100810000548FFF7D9FD002008BD0322102102483A
:10082000FFF7D2FDF7E700BF0008014008B5CAB2E4
:1008300001460248FFF711FE002008BD00080140F4
:1008400038B505460C4601210820FFF7DBFF0121E2
:100850000420FFF7D7FF28E000BF01339BB2B3F5B8
:100860007A7FF9D3013C45FA04F313F0010F05D068
:1008700001210420FFF7DAFF002307E00021042014
:10088000FFF7D4FFF8E700BF01339BB2B3F57A7FDF
:10089000F9D301210820FFF7C9FF002302E000BFC0
:1008A00001339BB2B3F57A7FF9D32CB10021082034
:1008B000FFF7BCFF0023D2E700210820FFF7B6FFB7
:1008C00038BD70B506460D46144610214FF6FF7030
:1008D000FFF7B6FF10214FF6FF70FFF7B1FF0221BF
:1008E0000120FFF7ADFF02210120FFF7A9FF05213D
:1008F0003046FFF7A5FF05212846FFF7A1FF02219B
:100900000846FFF79DFF10212046FFF799FF0020C2
:1009100070BD00000A4B1B680A4AA2FB03239B0917
:10092000013BB3F1807F0AD24FF0E0225361064BC6
:10093000F02183F82310002393610723136170478C
:100940000C000020D34D621000ED00E0034B186056
:10095000024B1B68002BFBD1704700BFF400002046
:10096000034B1B681BB1024A1368013B13607047BD
:10097000F400002008B5FFF7F3FF08BD30B51446BA
:10098000002C05461A469BB005DA8B2303604FF016
:10099000FF301BB030BD4FF40273ADF80C300CBF0C
:1009A000234604F1FF33029305934FF6FF73009142
:1009B0000491ADF80E3069461E9B00F089F8431C87
:1009C000BCBF8B232B60002CE3D00022009B1A704D
:1009D000DFE7000007B5009313460A4601460348C7
:1009E0000068FFF7CBFF03B05DF804FB10000020A8
:1009F000014B1868704700BF100000200A44914264
:100A000000F1FF3300D1704710B511F8014B91424E
:100A100003F8014FF9D110BD2DE9F0471F468E684C
:100A20008246BE420C4690460B682DD8B1F90C2088
:100A300012F4906F26D06569096905EB4505A3EBB3
:100A4000010905EBD5757B1C4B446D109D4238BFE9
:100A50001D46530527D5294600F066FB064660B3C0
:100A60004A462169FFF7CAFFA38923F4906343F044
:100A70008003A38126614E4426603E466561A5EB56
:100A80000905A560BE4200D93E463246414620686F
:100A900000F0B8FA0020A3689B1BA36023683344CE
:100AA0002360BDE8F0872A4600F0CAFB064600280E
:100AB000E0D15046216900F0CDFA0C23CAF800308D
:100AC000A3894FF0FF3043F04003A381E9E7000022
:100AD0002DE9F04F98468B8907461B060D461446B4
:100AE0009DB010D50B6973B9402100F01DFB286043
:100AF000286130B90C233B604FF0FF301DB0BDE8DA
:100B0000F08F40236B610023099320238DF8293057
:100B100030234FF00109CDF80C80DFF898818DF873
:100B20002A3023469A4613F8012B0AB1252AF9D117
:100B3000BAEB040B0BD05B46224629463846FFF73A
:100B40006BFF013000F0A780099A5A4409929AF885
:100B50000030002B00F09F8000234FF0FF32CDE9E2
:100B600005230AF1010A049307938DF853301A9371
:100B70005446052214F8011B4E4800F05DFA049A11
:100B8000D8B9D00644BF20238DF85330110744BF95
:100B90002B238DF853309AF800302A2B15D0544669
:100BA00000204FF00A0C079A214611F8013B303B18
:100BB000092B4BD9B0B1079214E0A0EB080309FA56
:100BC00003F31343A2460493D2E7039B191D1B684A
:100BD0000391002BBBBF5B4242F0020207930793D5
:100BE000B8BF049223782E2B0AD163782A2B32D1F6
:100BF000039B02341A1D1B68039243EAE3730593B7
:100C0000DFF8B4A003225046217800F015FA38B17D
:100C10004022049BA0EB0A0082401343013404935A
:100C200014F8011B062225488DF8281000F004FA5C
:100C3000002836D0224B1BBB039B073323F007034E
:100C400008330393099B334409936AE70C46012058
:100C50000CFB0232A8E700234FF00A0C19460134BE
:100C60000593204610F8012B303A092A03D9002BAE
:100C7000C6D00591C4E7044601230CFB0121F0E72F
:100C800003AB00932A4638460E4B04A9AFF300800D
:100C9000421C0646D6D1AB895B063FF52DAF0998BD
:100CA0002CE703AB00932A463846064B04A900F014
:100CB0007DF8EDE7161400081C1400082014000845
:100CC00000000000190A00082DE9F0471646984672
:100CD0008A680B6907469342B8BF1346336091F8A0
:100CE00043200C46DDF820900AB1013333602368BD
:100CF000990642BF336802333360256815F0060554
:100D000006D104F1190AE36832689B1AAB422BDC66
:100D100094F843302268003B18BF0123920630D478
:100D20004146384604F14302C847013023D02368C6
:100D3000226903F00603042B14BF002533684FF02B
:100D4000000608BFE56804F11A0408BFED1A54F85C
:100D5000123C08BF25EAE5759342C4BF9B1AED1803
:100D6000B5421AD1002008E00123524641463846D8
:100D7000C847013003D14FF0FF30BDE8F08701359F
:100D8000C1E73020E11881F843005A1C94F845105F
:100D90002244023382F84310C2E70123224641462F
:100DA0003846C8470130E6D00136D9E72DE9FF477C
:100DB0000F7E9146782F80460C469A460C9E01F194
:100DC000430207D8622F0AD8002F00F0DD80582F89
:100DD00000F0C38004F1420684F842703AE0A7F1C3
:100DE0006303152BF6D801A151F823F0450E000836
:100DF000590E0008D50D0008D50D0008D50D0008C6
:100E0000D50D0008590E0008D50D0008D50D0008B5
:100E1000D50D0008D50D00086F0F0008E70E00087B
:100E2000270F0008D50D0008D50D0008910F000808
:100E3000D50D0008E70E0008D50D0008D50D0008F7
:100E40002F0F000833681A1D1B68326004F1420638
:100E500084F842300123A8E031682368081D30601F
:100E60001E0601D50D6803E05D06FBD5B1F9005003
:100E7000002D616878DA2D20002984F84300A160F4
:100E80002DDA0A235D486D421646B5FBF3F103FBEC
:100E90001157C75D06F8017D2F46BB420D46F4D9B8
:100EA000082B0BD12368DF0708D5236961689942B5
:100EB000DEBF302306F8013C06F1FF36921B2261AB
:100EC0004B4621464046CDF800A003AAFFF7FCFEA2
:100ED00001306FD14FF0FF3004B0BDE8F08723F050
:100EE00004032360CDE721683368080653F8045BE8
:100EF00002D4490648BFADB26F2F336014BF0A2336
:100F000008233E48002184F843106668002EA6603E
:100F1000BADB216821F004012160002DB4D1002E3C
:100F2000B2D11646BCE7236843F02003236078273C
:100F3000334884F84570236831681F0651F8045B14
:100F400002D45F0648BFADB23160D90744BF43F059
:100F5000200323601DB11023D4E72848E9E7236864
:100F600023F020032360F6E70A232448CDE7336803
:100F70002568181D616930602E061B6801D519604F
:100F800002E06806FBD5198000231646236197E727
:100F9000336800211A1D32601E686268304600F016
:100FA0004BF808B1801B606063682361002384F8FC
:100FB000433085E73246494640462369D0470130F1
:100FC00088D023689B0714D4E068039B9842B8BF7D
:100FD000184681E70123324649464046D047013052
:100FE0003FF478AF0135E36803995B1AAB42F1DC5B
:100FF000EAE7002504F11906F5E700BF2714000809
:1010000038140008884210B501EB020402D984426A
:10101000234607D8431EA14208D011F8012B03F83C
:10102000012FF8E7014602448A4200D110BD13F8AF
:10103000014D02F8014DF7E7034610B5C9B202446D
:101040009342184601D1002003E0047801338C421A
:10105000F6D110BD38B50546002940D051F8043C02
:101060000C1F002BB8BFE41800F0DEF81C4A136810
:1010700033B9636014602846BDE8384000F0DAB840
:10108000A34208D9206821188B4201BF19685B6808
:1010900009182160EDE71A465B680BB1A342FAD943
:1010A00011685018A0420BD12068014450188342A7
:1010B0001160E0D118685B68084410605360DAE79B
:1010C00002D90C232B60D6E7206821188B4201BF80
:1010D00019685B680918216063605460CBE738BD0C
:1010E000FC00002070B50F4E0C463168054611B962
:1010F00000F0D4F830602146284600F0CFF8431CB9
:1011000003D14FF0FF34204670BDC41C24F003040B
:10111000A042F8D0211A284600F0C0F80130F2D1E0
:10112000EFE700BFF80000202DE9F843CD1C25F0C3
:10113000030508350C2D38BF0C25002D064601DBB4
:10114000A94204D90C2333600020BDE8F883DFF8FE
:10115000D48000F069F8D8F800301C4644BB29461A
:101160003046FFF7BFFF431C044658D1D8F8004073
:101170002746002F43D1002C4BD0236839463046F8
:1011800004EB030900F08AF8814542D1216830461A
:101190006D1A2946FFF7A6FF01303AD023682B4489
:1011A0002360D8F800305A6862BBC8F800700FE0BE
:1011B0002268521B20D40B2A17D96119A34225603B
:1011C00018BF5960636808BFC8F8001062514B60CF
:1011D000304600F02FF804F10B00231D20F007002B
:1011E000C21A1CBF1B1AA350AFE76268A3420CBF10
:1011F000C8F800205A60EBE723466468AEE73C4637
:101200007F68B6E71A465B68A342FBD100235360B0
:10121000DEE70C233046336000F00CF894E70560FD
:10122000D6E700BFFC000020014800F047B800BF2F
:1012300000010020014800F042B800BF000100207A
:101240002DE9F041804615460C4621B91146BDE80E
:10125000F041FFF769BF2AB9FFF7FCFE00242046E2
:10126000BDE8F08100F02CF88542064602D8B5EBC7
:10127000500FF4D829464046FFF756FF074600288E
:10128000ECD0B5422A46214628BF3246FFF7B6FBCE
:1012900021464046FFF7DEFE3C46E0E738B5002336
:1012A000054D044608462B60FFF764F8431C02D145
:1012B0002B6803B1236038BD700000207047704771
:1012C00051F8043C181F002BBCBF0B58C0187047C6
:1012D000537461636B206672616D653A0A000000A9
:1012E000205230203D2020253038580A00000000D0
:1012F000205231203D2020253038580A00000000BF
:10130000205232203D2020253038580A00000000AD
:10131000205233203D2020253038580A000000009C
:1013200020523132203D20253038580A000000007C
:10133000204C52203D2020253038580A0000000063
:10134000205043203D2020253038580A000000005E
:1013500020505352203D20253038580A000000000C
:101360004653522F4641523A0A000000204346534A
:1013700052203D2020253038580A0000204846538E
:1013800052203D2020253038580A00002044465382
:1013900052203D2020253038580A00002041465375
:1013A00052203D2020253038580A0000204D4D465F
:1013B0004152203D20253038580A00002042464145
:1013C00052203D2020253038580A00004D697363B3
:1013D0000A000000204C522F4558435F5245545597
:1013E000524E3D20253038580A0000005B4861729B
:1013F000644661756C745D0A000000005B427573A1
:101400004661756C745D0A005B5573616765466182
:10141000756C745D0A00232D302B2000686C4C0025
:1014200065666745464700303132333435363738E4
:101430003941424344454600303132333435363742
:1014400038396162636465660000000010000000C6
:1014500000000000017A5200027C0E011B0C0D00FE
:101460001000000018000000000000001000000044
:041470000000000078
:10147400785634126C0000200000000000F36F0660
:1014840014000020000000000000000068000000BC
:10149400D000000000000000000000000000000078
:1014A4000000000000000000000000000000000038
:1014B4000000000000000000000000000000000028
:1014C4000000000000000000000000000000000018
:0414D4003254769880
:0400000508000105E9
:00000001FF
